{
  "transactions": [
    {
      "hash": "0xacf0844905bcc11b8dac159c660907219f426aaac84c7c7a43d75b6de585f85a",
      "transactionType": "CALL",
      "contractName": null,
      "contractAddress": "0x9b01f41c3fcddec17b149410ecb1f08790f8c79a",
      "function": "mintNft(string)",
      "arguments": [
        "\"ipfs://bafybeig37ioir76s7mg5oobetncojcm3c3hxasyd4rvid4jqhy4gkaheg4/?filename=0-PUG.json\""
      ],
      "transaction": {
        "from": "0x329830b49b41b1f348420eecf79e1a73d8b45fb9",
        "to": "0x9b01f41c3fcddec17b149410ecb1f08790f8c79a",
        "gas": "0x3d623",
        "value": "0x0",
        "input": "0xda86f4a900000000000000000000000000000000000000000000000000000000000000200000000000000000000000000000000000000000000000000000000000000057697066733a2f2f62616679626569673337696f6972373673376d67356f6f6265746e636f6a636d3363336878617379643472766964346a71687934676b61686567342f3f66696c656e616d653d302d5055472e6a736f6e000000000000000000",
        "nonce": "0x71",
        "chainId": "0xaa36a7"
      },
      "additionalContracts": [],
      "isFixedGasLimit": false
    }
  ],
  "receipts": [
    {
      "status": "0x1",
      "cumulativeGasUsed": "0x90d350",
      "logs": [
        {
          "address": "0x9b01f41c3fcddec17b149410ecb1f08790f8c79a",
          "topics": [
            "0xddf252ad1be2c89b69c2b068fc378daa952ba7f163c4a11628f55a4df523b3ef",
            "0x0000000000000000000000000000000000000000000000000000000000000000",
            "0x000000000000000000000000329830b49b41b1f348420eecf79e1a73d8b45fb9",
            "0x0000000000000000000000000000000000000000000000000000000000000000"
          ],
          "data": "0x",
          "blockHash": "0xdc84af317dd3d2b96abfd832e6d90c1476ef6b4488938e71f612a5210e232cc3",
          "blockNumber": "0x61b02f",
          "transactionHash": "0xacf0844905bcc11b8dac159c660907219f426aaac84c7c7a43d75b6de585f85a",
          "transactionIndex": "0x4e",
          "logIndex": "0x6f",
          "removed": false
        }
      ],
      "logsBloom": "0x01000000000000000000000000000000000000000000000000000000000000000000000000000000000000000000000000000000000000000000000000000000000000000000000000000008000000000000000000000000000000000000000000000000020000000000000000000800000000000000000000000010000000000000000000000000000000000000000000000100000000000000004000000000000000000000000000000000100000000000000100000000000000000000000000000002000000000000000000000000000000000000000000000000000020000000000000000000000000000000000000080000000000000000000000000000",
      "type": "0x2",
      "transactionHash": "0xacf0844905bcc11b8dac159c660907219f426aaac84c7c7a43d75b6de585f85a",
      "transactionIndex": "0x4e",
      "blockHash": "0xdc84af317dd3d2b96abfd832e6d90c1476ef6b4488938e71f612a5210e232cc3",
      "blockNumber": "0x61b02f",
      "gasUsed": "0x2c70e",
      "effectiveGasPrice": "0x1d9bd22af",
      "from": "0x329830b49b41b1f348420eecf79e1a73d8b45fb9",
      "to": "0x9b01f41c3fcddec17b149410ecb1f08790f8c79a",
      "contractAddress": null
    }
  ],
  "libraries": [],
  "pending": [],
  "returns": {},
  "timestamp": 1722321331,
  "chain": 11155111,
  "commit": "bf638e5"
}